:020000040800F2
:100000000050002021020008270200082B020008EF
:100010009D020008A1020008E9020008000000009B
:100020000000000000000000000000003103000894
:100030003503000800000000390300083D030008F4
:100040004D0300084D0300084D0300084D03000850
:100050004D0300084D0300084D0300084D03000840
:100060004D0300084D0300084D0300084D03000830
:100070004D0300084D0300084D0300084D03000820
:100080004D0300084D0300084D0300084D03000810
:100090004D0300084D0300084D0300084D03000800
:1000A0004D0300084D0300084D0300084D030008F0
:1000B0004D0300084D0300084D0300084D030008E0
:1000C0004D0300084D0300084D0300084D030008D0
:1000D0004D0300084D0300084D0300084D030008C0
:1000E0004D0300084D0300084D0300080000000008
:1000F0000000000000000000000000000000000000
:1001000000000000000000005FF808F100B583B0B7
:1001100000F044FD304B314A1360314A1360314BDB
:10012000314A03E052F8041B43F8041B2F498B4269
:10013000F8D32A4B1A682E4B9A4200D0FEE7284B80
:100140001A682C4B9A42F9D1234B2B4A13602B4A45
:1001500013602B4B02E0002243F8042B294A934200
:10016000F9D3254B1B6813B9244B1B6803B1FEE779
:1001700000F020FD694601A800F0A0FC224C234BB2
:10018000E41AA410002504E0204B53F825309847CA
:100190000135AC42F8DC1E4C1E4BE41AA4100025BD
:1001A00004E01C4B53F8253098470135AC42F8DC8D
:1001B0000099019800F00AFF0546174C174BE41A06
:1001C000A41004E0013C154B53F824309847002C50
:1001D000F8DC284600F044FCBABADECA0000002071
:1001E0009800002000000020201C00089C00002037
:1001F00078563412325476989C000020600100201A
:100200009C000020640100207803000878030008A7
:1002100078030008780300087803000878030008D2
:1002200008B5FFF773FF00BEFEE71EF0040F0CBF1A
:10023000EFF30880EFF309807146414A10472DE93A
:10024000F04182B004468846124B5E6B9F6B9D6AFC
:100250001B6B13F0020F03D00E4BDB6A002B0CDB81
:100260000D4800F03DFCCDF800803B463246294663
:10027000204600F0A3FC00BEFEE74BF6AB6100F0A9
:1002800017FD0028ECD0034B4FF00042DA6202B0B9
:10029000BDE8F08100ED00E0BC1B000800BEFEE7F9
:1002A0001EF0040F0CBFEFF30880EFF309807146D6
:1002B000244A10472DE9F04182B004468846084B95
:1002C0005E6B9F6B9D6A074800F00AFCCDF80080CA
:1002D0003B4632462946204600F070FC00BEFEE751
:1002E00000ED00E0CC1B00081EF0040F0CBFEFF384
:1002F0000880EFF309807146134A10472DE9F04159
:1003000082B004468846084B5E6B9F6B9D6A074827
:1003100000F0E6FBCDF800803B46324629462046F9
:1003200000F04CFC00BEFEE700ED00E0D81B00082A
:1003300000BEFEE700BEFEE700BEFEE7704700001D
:100340003F020008B5020008FD02000800BEFEE7FB
:10035000201C0008000000209C000020201C000839
:1003600000000000000000009C000020640100204C
:08037000000000000000000085
:10037800F8B505460C46494B98421BD003F58063F7
:10038800984217D003F58063984213D003F5806331
:1003980098420FD003F5806398420BD003F5806331
:1003A800984207D003F58063984203D0B2213C48B5
:1003B80000F088FBE3786BB1042B0BD0282B09D015
:1003C800482B07D0142B05D0102B03D01C2B01D0A1
:1003D800182B14D12388BBB1E37803F00F063046FD
:1003E80013F0100F06D0A378013BDBB2022B10D814
:1003F800A078304323785BB32E68002310E0B32144
:10040800274800F05FFBE5E7B421254800F05AFBD8
:10041800E2E7BB21224800F055FBE9E76A610133B6
:10042800072B14D801229A40218832EA0101F6D11B
:1004380099000F278F4026EA070600FA01F10E43BC
:10044800E1782829EAD04829E9D12A61E7E72E602E
:100458002388FF2B20D96E68002302E06A6115E02B
:100468000133072B17D803F1080101228A4021889C
:1004780032EA0101F4D199000F278F4026EA0706D6
:1004880000FA01F10E43E1782829E7D0E1784829FC
:10049800E6D12A61E4E76E60F8BD00BF00080140BC
:1004A800C819000838B504460D462A4B98421CD096
:1004B80003F58063984218D003F58063984214D0FE
:1004C80003F58063984210D003F5806398420CD0FE
:1004D80003F58063984208D003F58063984204D0FE
:1004E8004FF48F711C4800F0EDFA6B1E9BB2012B84
:1004F80023D9042D21D0082D1FD0102D1DD0202D3B
:100508001BD0402D19D0802D17D0B5F5807F14D081
:10051800B5F5007F11D0B5F5806F0ED0B5F5006F39
:100528000BD0B5F5805F08D0B5F5005F05D0B5F5FF
:10053800804F02D0B5F5004F04D1A3681D4207D003
:10054800012038BD40F21F11034800F0BBFAF4E760
:100558000020F6E700080140C819000870B50446F5
:100568000D4616462D4B98421CD003F580639842E1
:1005780018D003F58063984214D003F5806398423D
:1005880010D003F5806398420CD003F5806398423D
:1005980008D003F58063984204D040F28D112048BA
:1005A80000F090FA6B1E9BB2012B23D9042D21D0A9
:1005B800082D1FD0102D1DD0202D1BD0402D19D057
:1005C800802D17D0B5F5807F14D0B5F5007F11D0F8
:1005D800B5F5806F0ED0B5F5006F0BD0B5F5805F1F
:1005E80008D0B5F5005F05D0B5F5804F02D0B5F558
:1005F800004F04D1012E08D86EB1256170BD4FF4AB
:10060800C771074800F05EFAF4E740F28F1104481A
:1006180000F058FAF0E76561F0E700BF0008014014
:10062800C819000810B4294B5B6803F00C03042BAD
:100638002BD0082B2CD013B1254B036001E0244BA1
:10064800036022494B68C3F30313224CE35CDAB21C
:100658000368D34043604A68C2F30222A25CD2B264
:1006680023FA02F282604A68C2F3C222A25CD2B2C2
:10067800D340C3604A68C2F3813217498A5CD2B258
:10068800B3FBF2F3036110BC7047144B0360D8E767
:100698000E4A53685268C3F38343023312F4803F0F
:1006A80004D10F4A02FB03F30360CAE7074A526802
:1006B80012F4003F04D00B4A02FB03F30360C0E7C7
:1006C800064A02FB03F30360BBE700BF00100240C9
:1006D80000127A000800002004000020001BB70068
:1006E80000093D00808D5B0038B504460D460E4B71
:1006F800034003B920B940F24A410C4800F0E2F93E
:10070800012D05D855B10A4A93691C43946138BD37
:1007180040F24B41054800F0D5F9F3E7044A9369E4
:1007280023EA04049461F2E70200C0FFFC19000800
:100738000010024030B587B004460D46674B98421A
:1007480013D0A3F5744398420FD003F58063984201
:100758000BD003F58063984207D003F58063984275
:1007680003D0B8215E4800F0ADF92B68013B5D4A23
:10077800934200F28580AB881BB1B3F5805F40F0EF
:100788008480EB8843B1B3F5805F05D0B3F5005F93
:1007980002D0B3F5405F7DD12B892BB1B3F5806FC3
:1007A80002D0B3F5C06F7AD16A8922F00C039BB2EC
:1007B80003B91AB9BD214A4800F084F9AB8943B19D
:1007C800B3F5807F05D0B3F5007F02D0B3F5407F45
:1007D8006AD1AB8973B1414B9C420BD0A3F57443EA
:1007E8009C4207D003F580639C4203D0C2213C4859
:1007F80000F068F9238A9BB2EA8823F44053134334
:100808002382A3899BB2A98828896A8901430A435C
:1008180023F4B05323F00C031343A381A38A9BB2A0
:10082800AA8923F440731343A38201A8FFF7FAFEB1
:100838002A4B9C423DD0039BA28912F4004F3AD127
:1008480003EB830303EB830329688900B3FBF1F10E
:10085800254BA3FB012358090501642300FB13134F
:10086800A28912F4004F2FD11B0132331E4AA2FB7A
:100878000323C3F343132B439BB2238107B030BD3B
:10088800B921174800F01EF975E7BA21144800F09D
:1008980019F976E7BB21124800F014F97CE7BC216E
:1008A8000F4800F00FF97FE7BE210D4800F00AF964
:1008B8008FE7049BC0E703EB830303EB83032968FB
:1008C8004900B3FBF1F1C3E7DA003232064BA3FB70
:1008D8000232C2F3421242EA0503CDE70038014072
:1008E8002C1A00081FAA44001F85EB5138B504468E
:1008F8000D46164B984214D0A3F57443984210D075
:1009080003F5806398420CD003F58063984208D0C1
:1009180003F58063984204D04FF4B1710C4800F09D
:10092800D1F8012D05D855B1A38943F40053A3810B
:1009380038BD40F26311064800F0C4F8F3E7A38914
:100948009BB223F400539BB2A381F1E70038014026
:100958002C1A000838B505460C46124B984214D09C
:10096800A3F57443984210D003F5806398420CD0E5
:1009780003F58063984208D003F58063984204D059
:1009880040F25F21084800F09DF8B4F5007F03D2DB
:10099800C4F30804AC8038BD4FF41871024800F065
:1009A80091F8F5E7003801402C1A000838B50546DB
:1009B8000C46274B984214D0A3F57443984210D0A4
:1009C80003F5806398420CD003F58063984208D001
:1009D80003F58063984204D040F286311D4800F048
:1009E80071F8012C13D0802C11D0402C0FD0202C62
:1009F8000DD0102C0BD0B4F5807F08D0B4F5007F53
:100A080005D0082C03D0042C01D0022C07D1B4F552
:100A1800007F0AD02B881C4218D0012038BD40F234
:100A280087310C4800F04EF8F1E7094B9D42F1D0B0
:100A3800A3F574439D42EDD003F580639D42E9D050
:100A480040F28B31034800F03DF8E3E70020E5E78A
:100A5800003801402C1A0008FEE7000008B50348DA
:100A680000F054F80120FFF7F7FF00BF601A0008F4
:100A780008B503460C4A12685AB10B4A106803338A
:100A880023F003030344094A934206D8064A136035
:100A980008BD054A06491160EFE700F021FB0C2369
:100AA80003604FF0FF30F3E7A0000020004C002067
:100AB8006401002001230360014B0B60704700BFF5
:100AC8001800002008B50A460146024800F004F85C
:100AD800FFF7C4FF741A00080FB400B583B004AB65
:100AE80053F8042B01938021074800F053FB00289A
:100AF80004DC03B05DF804EB04B07047014602481B
:100B080000F044F8F5E700BFA800002010B504463F
:100B180000F00CFB0146204600F038F8012102489D
:100B280000F034F810BD00BF381B00082DE9F04371
:100B380085B004460F46435633BB04252846214654
:100B4800ABBE0446384605B0BDE8F08304AA13449A
:100B5800002203F8102C4FF00408E94640464946A5
:100B6800ABBE8046761B002EECD03546102E28BF33
:100B780010250023AB42E9D214F9011B04AA1A4438
:100B880002F8101C0133F5E70E46ECE708B5FFF74D
:100B9800CDFF08BD08B500F0FDF8024A024B9A6087
:100BA80008BD00BF0000000800ED00E008B500F037
:100BB80019F908BDF8B504460D4617461E462748DC
:100BC800FFF78AFF21682648FFF786FF61682548F6
:100BD800FFF782FFA1682448FFF77EFFE1682348FA
:100BE800FFF77AFF21692248FFF776FF61692148FC
:100BF800FFF772FFA1692048FFF76EFFE1691F4800
:100C0800FFF76AFF1E48FFF767FF29461D48FFF7F1
:100C180063FF1D4CE16A1D48FFF75EFF216B1C480E
:100C2800FFF75AFFE16B1B48FFF756FF15F0800FDF
:100C38000AD115F4004F0CD11748FFF74DFF06995C
:100C48001648FFF749FFF8BD39461548FFF744FF36
:100C5800EFE731461348FFF73FFFEDE7A01A00081A
:100C6800B01A0008C01A0008D01A0008E01A0008D4
:100C7800F01A0008001B0008101B0008201B0008C1
:100C8800301B00083C1B000800ED00E04C1B00086E
:100C98005C1B00086C1B00089C1B0008A41B0008B8
:100CA8007C1B00088C1B000883691A888A4201D0C3
:100CB800002070470268033A012A01D900207047D2
:100CC800023383610120704782B0002301930093AF
:100CD8002C4A136843F4803313602A4B1B6803F4CF
:100CE80000330093019B01330193009B1BB9019BC7
:100CF800B3F5A06FF1D1234B1B6813F4003F06D066
:100D080001230093009B012B04D002B070470023FD
:100D18000093F7E71C4B1A6842F010021A601A6831
:100D280022F003021A601A6842F002021A60A3F560
:100D380080535A685A605A685A605A6842F4806206
:100D48005A605A6822F47C125A605A6842F4E812CF
:100D58005A601A6842F080721A600A4B1B6813F0D6
:100D6800007FFAD0074B5A6822F003025A605A688B
:100D780042F002025A60034B5B6803F00C03082B35
:100D8800F9D1C2E7001002400020024008B5FFF781
:100D98009BFF08BD08B5104B1A6842F001021A60A3
:100DA80059680E4A0A405A601A6822F0847222F47E
:100DB80080321A601A6822F480221A605A6822F473
:100DC800FE025A604FF41F029A60FFF7DFFF044BE0
:100DD8004FF000629A6008BD001002400000FFF862
:100DE80000ED00E01F4B5B6803F00C03042B15D0EB
:100DF800082B17D01BB11C4B1C4A1A6002E01A4B77
:100E08001A4A1A60174B5B68C3F30313184AD35C7A
:100E1800DAB215490B68D3400B607047124B154A7C
:100E28001A60EFE70F4A53685268C3F383430233EB
:100E380012F4803F05D1104A02FB03F30A4A1360FB
:100E4800E0E7084A526812F4003F05D00B4A02FB5B
:100E580003F3054A1360D5E7064A02FB03F3024A87
:100E68001360CFE7001002403000002000127A0023
:100E780020000020001BB70000093D00808D5B00AA
:100E880010B582B0044608462160A280ADF804205F
:100E980048238DF8073001238DF8063001A9FFF7A4
:100EA80067FA204602B010BD08B581880068FFF7D0
:100EB800F9FAB0FA80F0400908BD10B582B00446CE
:100EC80008462160A280ADF8042010238DF8073071
:100ED80001238DF8063001A9FFF74AFA204602B02F
:100EE80010BD08B5012281880068FFF737FB08BDEF
:100EF80008B5002281880068FFF730FB08BD82B082
:100F080000230193019BB3F5A02F03D0019B01336C
:100F18000193F7E702B0704730B587B0012144F27A
:100F28000400FFF7E1FB4FF40073ADF81430182309
:100F38008DF8173003258DF81650164C05A9204654
:100F4800FFF716FA4FF48063ADF8143004238DF8D8
:100F580017308DF8165005A92046FFF709FA4FF407
:100F6800E13301930023ADF80830ADF80A30ADF84D
:100F78000C30ADF810300C23ADF80E3004F54054A9
:100F880001A92046FFF7D6FB01212046FFF7AEFC5A
:100F980007B030BD0008014038B504464D1E69B1A0
:100FA80014F9011B89B20648FFF7D4FC4021044814
:100FB800FFF7FCFC0028F9D02946EFE738BD00BF51
:100FC8000038014070B58EB0FFF7A6FF0121082058
:100FD800FFF78AFB3F4C0822214606A8FFF76DFF62
:100FE8000422214608A8FFF768FF022221460AA822
:100FF800FFF763FF012221460CA8FFF75EFF04F507
:1010080080644FF4804221466846FFF739FF4FF469
:101018000052214602A8FFF733FF4FF40042214651
:1010280004A8FFF72DFF00264DE006AB03EBC40034
:10103800FFF75EFF0134032CF7DD4FF0FF35002486
:1010480000E00134022C07DC0DEBC400FFF72CFF95
:101058000028F6D02546F4E7002D32DB002405E011
:1010680006AB03EBC400FFF73CFF0134032CF7DDAC
:101078000024032C0CDC06AB03EBC400FFF738FF9D
:101088000DEBC500FFF710FF08B90134F1E726465C
:1010980006EB46031D44EDB26B1C5BB20A2B06D06F
:1010A8000B2B12D00C2B12D031356AB200E02A2259
:1010B800094C0A49204600F019F81E212046FFF77E
:1010C8006BFFFFF71CFF0024B5E73022F0E723226F
:1010D800EEE700BF0008014028010020E81B0008D7
:1010E800014B1868704700BF340000200EB46FF041
:1010F800004100B59CB01DAB029006900791049189
:101108000848094953F8042B0591006802A901937E
:1011180000F0AAF80022029B1A701CB05DF804EBDC
:1011280003B07047340000200802FFFF034613F89D
:10113800012B002AFBD1181A0138704730B5141E4C
:1011480005469BB0184605DA8B234FF0FF302B601D
:101158001BB030BD4FF40273ADF80C300CBF234602
:1011680004F1FF33029305934FF6FF730091049146
:10117800ADF80E3002461E9B6946284600F074F80A
:10118800431CBCBF8B232B60002CE1D00022009BAA
:101198001A70DDE707B5009313460A46014603486F
:1011A8000068FFF7CBFF03B05DF804FB34000020B4
:1011B8002DE9F0478E6882469E420C469146984635
:1011C80038D8B1F80CC01CF4906F31D0626925682A
:1011D800096902EB42026F1A02EBD2720133551011
:1011E8003B449D4238BF1D461CF4806F30D02946D1
:1011F80000F040FB064650B90C234FF0FF30CAF808
:101208000030A38943F04003A381BDE8F0873A4644
:10121800216900F0BBFAA38923F4906343F08003AB
:10122800A38126613E44266046466561ED1BA560A4
:10123800464500D9464632464946206800F0B4FA89
:10124800A36800209B1BA36023681E442660DCE77C
:101258002A4600F069FB06460028E2D1216950467B
:1012680000F0BCFAC8E700002DE9F04F1E468B8954
:101278009DB01B0607460D4614460ED50B6963B98B
:10128800402100F0F7FA2860286120B90C233B6060
:101298004FF0FF30C9E040236B61002309932023FE
:1012A8008DF8293030234FF0010ADFF898918DF836
:1012B8002A30039623461E4613F8012B0AB1252A25
:1012C800F9D1B6EB040B0BD05B46224629463846CB
:1012D800FFF76EFF013000F0A380099B5B44099380
:1012E8003378002B00F09C8000234FF0FF32CDE9CB
:1012F80005230136049307938DF853301A93344627
:10130800052214F8011B4F4800F032FA049BC0B9BB
:10131800D90644BF20228DF853201A0744BF2B2238
:101328008DF8532032782A2A13D0344600200A2612
:10133800079A214611F8013B303B092B4BD970B96C
:1013480014E0A0EB09000AFA00F0184304902646BE
:10135800D5E7039A111D12680391002A01DB079251
:1013680004E0524243F002030792049323782E2BA1
:101378000CD163782A2B33D1039B02341A1D1B68C6
:101388000392002BB8BF4FF0FF3305932E4E032274
:101398002178304600F0ECF938B14023801B03FA7D
:1013A80000F0049B01340343049314F8011B062244
:1013B80026488DF8281000F0DBF9002838D0244B97
:1013C80013BB039B073323F0070308330393099BDD
:1013D800434409936EE706FB023201200C46A8E756
:1013E80000230A26194601340593204610F8012BDC
:1013F800303A092A03D9002BC8D00591C6E706FB65
:10140800012101230446F0E703AB00932A46114B60
:1014180004A93846AFF30080B0F1FF3F8046D6D12B
:10142800AB895B063FF534AF09981DB0BDE8F08F76
:1014380003AB00932A46074B04A9384600F082F80C
:10144800EAE700BFEC1B0008F21B0008F61B0008C7
:1014580000000000B91100082DE9F04791461F4629
:101468008A680B6906469342B8BF1346C9F800302C
:1014780091F843200C46DDF8208012B10133C9F8F9
:1014880000302368990642BFD9F800300233C9F802
:101498000030256815F0060507D104F1190AE3683C
:1014A800D9F800209B1AAB4229DC94F84330226813
:1014B800003318BF012392062ED404F143023946A3
:1014C8003046C047013021D02368E56803F00603A1
:1014D800042B18BF0025D9F800204FF0000908BFD9
:1014E800AD1AA368226908BF25EAE5759342C4BF0F
:1014F8009B1AED181A344D451AD1002008E0012333
:10150800524639463046C047013003D14FF0FF30CC
:10151800BDE8F0870135C2E73020E11881F84300C3
:101528005A1C94F845102244023382F84310C4E749
:101538000123224639463046C0470130E6D009F13A
:101548000109D8E72DE9F04306460C4601F14300AE
:10155800097E85B06E29984617460C9B00F0BB8023
:1015680024D8632939D00AD8002900F0C480582922
:1015780000F0928004F1420584F8421035E06429B5
:1015880001D06929F6D125681A6815F0800F02F193
:1015980004012CD012681960002A03DA2D23524264
:1015A80084F84330DFF8C0C10A233FE0732900F014
:1015B800A68008D86F2921D07029DBD1226842F093
:1015C8002002226003E0752918D07829D2D1782228
:1015D800DFF898C184F8452062E01A6804F14205F2
:1015E800111D1960136884F84230012394E01268D1
:1015F80015F0400F196018BF12B2CDE7D4F800C03B
:101608001A681CF0800F02F104051D6001D01268F1
:1016180003E01CF0400FFAD012886F290CBF082392
:101628000A23DFF844C1002184F843106568002DBF
:10163800A8BF2168A560A4BF21F0040121600AB9F0
:10164800002D46D00546B2FBF3F103FB112E1CF822
:101658000EE0934205F801ED39D9082B0BD1236828
:10166800DA0708D5236962689A42DEBF302305F895
:10167800013C05F1FF35401B2061CDF800803B4659
:1016880003AA21463046FFF7E7FE013049D14FF063
:10169800FF3005B0BDE8F083DFF8CCC084F8451012
:1016A8001D68216855F8042B1D600D060BD5CD0764
:1016B80044BF41F0200121601AB9236823F02003B8
:1016C80023601023AFE74B0648BF92B2EFE70A4604
:1016D800B9E70546C1E71A68D4F800C0151D616965
:1016E8001CF0800F1D60136801D0196003E01CF026
:1016F800400FFAD01980002305462361BDE71A6818
:10170800111D1960156800216268284600F030F83C
:1017180008B1401B606063682361002384F843308C
:10172800ABE723692A4639463046C0470130AED078
:1017380023689B0713D4E068039B9842B8BF1846F8
:10174800A7E701234A4639463046C04701309ED0B4
:101758000135E368039A9B1AAB42F2DCEBE70025FC
:1017680004F11909F5E700BFFD1B00080E1C00086D
:1017780010B5C9B202449042034601D1002303E0E8
:101788001C7801308C42F6D1184610BD0A449142AB
:1017980000F1FF3300D1704710B511F8014B9142A9
:1017A80003F8014FF9D110BD884210B501EB0203CF
:1017B80002D983421C4607D8421E994208D011F824
:1017C800014B02F8014FF8E783189A1A9A4200D1A0
:1017D80010BD14F8011D03F8011DF7E738B50546DB
:1017E800002943D051F8043C0C1F002BB8BFE41863
:1017F80000F0D0F81E4A1368104633B963601460CD
:101808002846BDE8384000F0CBB8A3420BD9216880
:101818006218934201BF1A685B68521822606360BD
:101828000460EDE713465A680AB1A242FAD919686A
:101838005818A0420BD120680144581882421960F8
:10184800DED110685268014419605A60D8E702D99D
:101858000C232B60D4E7206821188A4201BF116845
:1018680052680918216062605C60C9E738BD00BF32
:1018780048010020F8B5CD1C25F0030508350C2DCE
:1018880038BF0C25002D064601DBA94203D90C23DD
:1018980033600020F8BD00F07DF821490A6814463D
:1018A8009CB9204F3B6823B92146304600F062F8C6
:1018B80038602946304600F05DF8431C23D10C23DC
:1018C8003046336000F06CF8E3E723685B1B17D4FD
:1018D8000B2B03D923601C44256004E06368A242F3
:1018E8000CBF0B605360304600F05AF804F10B004F
:1018F800231D20F00700C21ACCD01B1AA350C9E739
:1019080022466468CCE7C41C24F00304A042E3D058
:10191800211A304600F02EF80130DDD1CFE700BFA4
:10192800480100204C010020F8B5074614460E4631
:1019380021B91146BDE8F840FFF79CBF22B9FFF76F
:101948004DFF25462846F8BD00F030F8A0420FD2DA
:1019580021463846FFF78EFF05460028F2D031466B
:101968002246FFF713FF31463846FFF737FFE9E70E
:101978003546E7E738B50023054C05460846236099
:10198800FFF776F8431C02D1236803B12B6038BDFA
:1019980050010020014800F011B800BF5801002094
:1019A800014800F00CB800BF5801002051F8043C71
:1019B800181F002BBCBF0B58C018704770477047E2
:1019C8002E2E2F73797374656D2F7372632F737452
:1019D8006D333266312D7374647065726970682F67
:1019E80073746D3332663130785F6770696F2E6358
:1019F800000000002E2E2F73797374656D2F73729B
:101A0800632F73746D333266312D7374647065722D
:101A18006970682F73746D3332663130785F726322
:101A2800632E63002E2E2F73797374656D2F737276
:101A3800632F73746D333266312D737464706572FD
:101A48006970682F73746D3332663130785F7573DF
:101A58006172742E6300000061626F727428292C11
:101A68002065786974696E672E2E2E006173736520
:101A780072745F706172616D2829206661696C6596
:101A8800643A2066696C6520222573222C206C69D3
:101A98006E652025640A0000537461636B206672CA
:101AA800616D653A0A000000205230203D20202553
:101AB8003038580A00000000205231203D202025EF
:101AC8003038580A00000000205232203D202025DE
:101AD8003038580A00000000205233203D202025CD
:101AE8003038580A0000000020523132203D2025AD
:101AF8003038580A00000000204C52203D20202594
:101B08003038580A00000000205043203D2020258E
:101B18003038580A0000000020505352203D20253C
:101B28003038580A000000004653522F4641523AB6
:101B38000A0000002043465352203D20202530381B
:101B4800580A00002048465352203D2020253038AE
:101B5800580A00002044465352203D2020253038A2
:101B6800580A00002041465352203D202025303895
:101B7800580A0000204D4D464152203D202530385E
:101B8800580A00002042464152203D202025303886
:101B9800580A00004D6973630A000000204C522F58
:101BA8004558435F52455455524E3D2025303858CC
:101BB8000A0000005B486172644661756C745D0AD6
:101BC800000000005B4275734661756C745D0A0025
:101BD8005B55736167654661756C745D0A0000004A
:101BE80025630A00232D302B2000686C4C006566A5
:101BF8006745464700303132333435363738394156
:101C0800424344454600303132333435363738396B
:071C18006162636465660070
:101C20007856341202040608000000000102030482
:101C30000102030406070809A400002000000000B8
:101C4000000000000000000001020304060708096C
:101C500000A24A043800002000000000000000003C
:101C60000000000000000000000000000000000074
:101C70000000000000000000000000000000000064
:101C80000000000000000000000000000000000054
:101C90000000000000000000000000000000000044
:101CA0000000000000000000000000000000000034
:0C1CB00000000000000000003254769894
:040000050800010DE1
:00000001FF
